{
  "contractName": "ProofOfExistence",
  "abi": [
    {
      "constant": true,
      "inputs": [
        {
          "name": "",
          "type": "bytes32"
        }
      ],
      "name": "proofs",
      "outputs": [
        {
          "name": "",
          "type": "bool"
        }
      ],
      "payable": false,
      "stateMutability": "view",
      "type": "function",
      "signature": "0x444d95b0"
    },
    {
      "constant": false,
      "inputs": [
        {
          "name": "proof",
          "type": "bytes32"
        }
      ],
      "name": "storeProof",
      "outputs": [],
      "payable": false,
      "stateMutability": "nonpayable",
      "type": "function",
      "signature": "0x8952877b"
    },
    {
      "constant": false,
      "inputs": [
        {
          "name": "document",
          "type": "string"
        }
      ],
      "name": "notarize",
      "outputs": [],
      "payable": false,
      "stateMutability": "nonpayable",
      "type": "function",
      "signature": "0x7183616c"
    },
    {
      "constant": true,
      "inputs": [
        {
          "name": "document",
          "type": "string"
        }
      ],
      "name": "proofFor",
      "outputs": [
        {
          "name": "proof",
          "type": "bytes32"
        }
      ],
      "payable": false,
      "stateMutability": "pure",
      "type": "function",
      "signature": "0xf6c1acdf"
    },
    {
      "constant": true,
      "inputs": [
        {
          "name": "document",
          "type": "string"
        }
      ],
      "name": "checkDocument",
      "outputs": [
        {
          "name": "",
          "type": "bool"
        }
      ],
      "payable": false,
      "stateMutability": "view",
      "type": "function",
      "signature": "0x53fb9233"
    },
    {
      "constant": true,
      "inputs": [
        {
          "name": "proof",
          "type": "bytes32"
        }
      ],
      "name": "hasProof",
      "outputs": [
        {
          "name": "",
          "type": "bool"
        }
      ],
      "payable": false,
      "stateMutability": "view",
      "type": "function",
      "signature": "0xe3d1e6d6"
    }
  ],
  "bytecode": "0x608060405234801561001057600080fd5b50610553806100206000396000f3fe608060405260043610610078576000357c0100000000000000000000000000000000000000000000000000000000900463ffffffff168063444d95b01461007d57806353fb9233146100d05780637183616c146101b05780638952877b14610278578063e3d1e6d6146102b3578063f6c1acdf14610306575b600080fd5b34801561008957600080fd5b506100b6600480360360208110156100a057600080fd5b81019080803590602001909291905050506103e2565b604051808215151515815260200191505060405180910390f35b3480156100dc57600080fd5b50610196600480360360208110156100f357600080fd5b810190808035906020019064010000000081111561011057600080fd5b82018360208201111561012257600080fd5b8035906020019184600183028401116401000000008311171561014457600080fd5b91908080601f016020809104026020016040519081016040528093929190818152602001838380828437600081840152601f19601f820116905080830192505050505050509192919290505050610402565b604051808215151515815260200191505060405180910390f35b3480156101bc57600080fd5b50610276600480360360208110156101d357600080fd5b81019080803590602001906401000000008111156101f057600080fd5b82018360208201111561020257600080fd5b8035906020019184600183028401116401000000008311171561022457600080fd5b91908080601f016020809104026020016040519081016040528093929190818152602001838380828437600081840152601f19601f820116905080830192505050505050509192919290505050610421565b005b34801561028457600080fd5b506102b16004803603602081101561029b57600080fd5b810190808035906020019092919050505061043b565b005b3480156102bf57600080fd5b506102ec600480360360208110156102d657600080fd5b8101908080359060200190929190505050610469565b604051808215151515815260200191505060405180910390f35b34801561031257600080fd5b506103cc6004803603602081101561032957600080fd5b810190808035906020019064010000000081111561034657600080fd5b82018360208201111561035857600080fd5b8035906020019184600183028401116401000000008311171561037a57600080fd5b91908080601f016020809104026020016040519081016040528093929190818152602001838380828437600081840152601f19601f820116905080830192505050505050509192919290505050610492565b6040518082815260200191505060405180910390f35b60006020528060005260406000206000915054906101000a900460ff1681565b60008061040e83610492565b905061041981610469565b915050919050565b600061042c82610492565b90506104378161043b565b5050565b600160008083815260200190815260200160002060006101000a81548160ff02191690831515021790555050565b600080600083815260200190815260200160002060009054906101000a900460ff169050919050565b6000816040516020018080602001828103825283818151815260200191508051906020019080838360005b838110156104d85780820151818401526020810190506104bd565b50505050905090810190601f1680156105055780820380516001836020036101000a031916815260200191505b509250505060405160208183030381529060405280519060200120905091905056fea165627a7a7230582024d5706af6c242a6e04aa314e1dc350d1f6dca5f6f722e5c4e5acff3a12b857d0029",
  "source": "pragma solidity ^0.5.0;\n\ncontract ProofOfExistence {\n\n  mapping(bytes32 => bool) public proofs;\n\n  function storeProof(bytes32 proof) public{\n    proofs[proof] = true;\n  }\n  function notarize(string memory document) public {\n    bytes32 proof = proofFor(document);\n    storeProof(proof);\n  }\n  function proofFor(string memory document) public pure returns(bytes32 proof){\n    //return sha256(document);\n    return keccak256(abi.encode(document));\n    //abi.encodePacked(...) to obtain the pre-0.5.0 behaviour or abi.encode(...) to use ABI encoding.\n\n  }\n\n  function checkDocument(string memory document) public view returns(bool){\n    bytes32 proof = proofFor(document);\n    return hasProof(proof);\n  }\n  function hasProof(bytes32 proof) public view returns(bool){\n\n    return proofs[proof];\n  }\n\n}\n",
  "sourcePath": "/home/hyperledger/dapp/proofofexistence/proofOFExistenceSC/contracts/ProofOfExistence.sol",
  "compiler": {
    "name": "solc",
    "version": "0.5.0+commit.1d4f565a.Emscripten.clang"
  },
  "schemaVersion": "3.0.0",
  "updatedAt": "2019-01-02T15:12:55.535Z",
  "devdoc": {
    "methods": {}
  },
  "userdoc": {
    "methods": {}
  }
}