{
  "contractName": "ProofOfExistence",
  "abi": [
    {
      "constant": true,
      "inputs": [
        {
          "name": "",
          "type": "bytes32"
        }
      ],
      "name": "proofs",
      "outputs": [
        {
          "name": "",
          "type": "bool"
        }
      ],
      "payable": false,
      "stateMutability": "view",
      "type": "function"
    },
    {
      "constant": true,
      "inputs": [
        {
          "name": "document",
          "type": "string"
        }
      ],
      "name": "checkDocument",
      "outputs": [
        {
          "name": "",
          "type": "bool"
        }
      ],
      "payable": false,
      "stateMutability": "view",
      "type": "function"
    },
    {
      "constant": false,
      "inputs": [
        {
          "name": "document",
          "type": "string"
        }
      ],
      "name": "notarize",
      "outputs": [],
      "payable": false,
      "stateMutability": "nonpayable",
      "type": "function"
    },
    {
      "constant": false,
      "inputs": [
        {
          "name": "proof",
          "type": "bytes32"
        }
      ],
      "name": "storeProof",
      "outputs": [],
      "payable": false,
      "stateMutability": "nonpayable",
      "type": "function"
    },
    {
      "constant": true,
      "inputs": [
        {
          "name": "proof",
          "type": "bytes32"
        }
      ],
      "name": "hasProof",
      "outputs": [
        {
          "name": "",
          "type": "bool"
        }
      ],
      "payable": false,
      "stateMutability": "view",
      "type": "function"
    },
    {
      "constant": true,
      "inputs": [
        {
          "name": "document",
          "type": "string"
        }
      ],
      "name": "proofFor",
      "outputs": [
        {
          "name": "proof",
          "type": "bytes32"
        }
      ],
      "payable": false,
      "stateMutability": "pure",
      "type": "function"
    }
  ],
  "bytecode": "0x6060604052341561000f57600080fd5b6103ee8061001e6000396000f300606060405260043610610078576000357c0100000000000000000000000000000000000000000000000000000000900463ffffffff168063444d95b01461007d57806353fb9233146100bc5780637183616c146101315780638952877b1461018e578063e3d1e6d6146101b5578063f6c1acdf146101f4575b600080fd5b341561008857600080fd5b6100a260048080356000191690602001909190505061026d565b604051808215151515815260200191505060405180910390f35b34156100c757600080fd5b610117600480803590602001908201803590602001908080601f0160208091040260200160405190810160405280939291908181526020018383808284378201915050505050509190505061028d565b604051808215151515815260200191505060405180910390f35b341561013c57600080fd5b61018c600480803590602001908201803590602001908080601f016020809104026020016040519081016040528093929190818152602001838380828437820191505050505050919050506102ac565b005b341561019957600080fd5b6101b36004808035600019169060200190919050506102c6565b005b34156101c057600080fd5b6101da6004808035600019169060200190919050506102fc565b604051808215151515815260200191505060405180910390f35b34156101ff57600080fd5b61024f600480803590602001908201803590602001908080601f0160208091040260200160405190810160405280939291908181526020018383808284378201915050505050509190505061032d565b60405180826000191660001916815260200191505060405180910390f35b60006020528060005260406000206000915054906101000a900460ff1681565b6000806102998361032d565b90506102a4816102fc565b915050919050565b60006102b78261032d565b90506102c2816102c6565b5050565b6001600080836000191660001916815260200190815260200160002060006101000a81548160ff02191690831515021790555050565b6000806000836000191660001916815260200190815260200160002060009054906101000a900460ff169050919050565b60006002826000604051602001526040518082805190602001908083835b602083101515610370578051825260208201915060208101905060208303925061034b565b6001836020036101000a03801982511681845116808217855250505050505090500191505060206040518083038160008661646e5a03f115156103b257600080fd5b50506040518051905090509190505600a165627a7a723058209229a64b88526da6dcda43f9dad1d4bd216fba8c7c7d32c0913f6725a3593f620029",
  "source": "pragma solidity ^0.4.18;\r\n\r\ncontract ProofOfExistence {\r\n\r\n  mapping(bytes32 => bool) public proofs;\r\n\r\n  function storeProof(bytes32 proof) public{\r\n    proofs[proof] = true;\r\n  }\r\n  function notarize(string document) public {\r\n    bytes32 proof = proofFor(document);\r\n    storeProof(proof);\r\n  }\r\n  function proofFor(string document) public pure returns(bytes32 proof){\r\n    return sha256(document);\r\n  }\r\n\r\n  function checkDocument(string document) public constant returns(bool){\r\n    bytes32 proof = proofFor(document);\r\n    return hasProof(proof);\r\n  }\r\n  function hasProof(bytes32 proof) public constant returns(bool){\r\n\r\n    return proofs[proof];\r\n  }\r\n  \r\n}\r\n",
  "sourcePath": "C:\\consenSys\\proofofexistence\\proofOFExistenceSC\\contracts\\ProofOfExistence.sol",
  "compiler": {
    "name": "solc",
    "version": "0.4.18+commit.9cf6e910.Emscripten.clang"
  },
  "schemaVersion": "1.0.1",
  "updatedAt": "2018-12-01T03:40:22.437Z"
}