{
  "contractName": "ProofOfExistence2",
  "abi": [
    {
      "inputs": [
        {
          "name": "document",
          "type": "string"
        }
      ],
      "payable": false,
      "stateMutability": "nonpayable",
      "type": "function",
      "constant": false,
      "name": "notarize",
      "outputs": []
    },
    {
      "constant": false,
      "inputs": [
        {
          "name": "proof",
          "type": "bytes32"
        }
      ],
      "name": "storeProof",
      "outputs": [],
      "payable": false,
      "stateMutability": "nonpayable",
      "type": "function"
    },
    {
      "constant": true,
      "inputs": [
        {
          "name": "document",
          "type": "string"
        }
      ],
      "name": "proofFor",
      "outputs": [
        {
          "name": "proof",
          "type": "bytes32"
        }
      ],
      "payable": false,
      "stateMutability": "pure",
      "type": "function"
    },
    {
      "inputs": [],
      "payable": false,
      "stateMutability": "nonpayable",
      "type": "constructor"
    }
  ],
  "bytecode": "0x6060604052341561000f57600080fd5b6102b78061001e6000396000f300606060405260043610610057576000357c0100000000000000000000000000000000000000000000000000000000900463ffffffff1680637183616c1461005c5780638952877b146100b9578063f6c1acdf146100e0575b600080fd5b341561006757600080fd5b6100b7600480803590602001908201803590602001908080601f01602080910402602001604051908101604052809392919081815260200183838082843782019150505050505091905050610159565b005b34156100c457600080fd5b6100de600480803560001916906020019091905050610173565b005b34156100eb57600080fd5b61013b600480803590602001908201803590602001908080601f016020809104026020016040519081016040528093929190818152602001838380828437820191505050505050919050506101a5565b60405180826000191660001916815260200191505060405180910390f35b6000610164826101a5565b905061016f81610173565b5050565b60008054806001018281610187919061023a565b91600052602060002090016000839091909150906000191690555050565b60006002826000604051602001526040518082805190602001908083835b6020831015156101e857805182526020820191506020810190506020830392506101c3565b6001836020036101000a03801982511681845116808217855250505050505090500191505060206040518083038160008661646e5a03f1151561022a57600080fd5b5050604051805190509050919050565b815481835581811511610261578183600052602060002091820191016102609190610266565b5b505050565b61028891905b8082111561028457600081600090555060010161026c565b5090565b905600a165627a7a7230582018fe56718b927387167bb294f9f5bbf27070cbf9bbe57b37232f16d3a8f764330029",
  "source": "pragma solidity ^0.4.18;\n\ncontract ProofOfExistence2 {\n  bytes32[] private proofs;\n\n  function storeProof(bytes32 proof) public{\n    proofs.push(proof);\n  }\n  function notarize(string document) public {\n    bytes32 proof = proofFor(document);\n    storeProof(proof);\n  }\n  function proofFor(string document) public pure returns(bytes32 proof){\n    return sha256(document);\n  }\n  function ProofOfExistence2() public {\n    // constructor\n  }\n}\n",
  "sourcePath": "C:\\consenSys\\proof-of-existence\\contracts\\ProofOfExistence2.sol",
  "compiler": {
    "name": "solc",
    "version": "0.4.18+commit.9cf6e910.Emscripten.clang"
  },
  "schemaVersion": "1.0.1",
  "updatedAt": "2018-11-26T01:55:05.689Z"
}